{
  "_format": "hh-sol-artifact-1",
  "contractName": "BUYsTSLA",
  "sourceName": "contracts/BUYsTSLA.sol",
  "abi": [
    {
      "inputs": [],
      "stateMutability": "nonpayable",
      "type": "constructor"
    },
    {
      "inputs": [],
      "name": "BuyUSDCForDevWallet",
      "outputs": [],
      "stateMutability": "payable",
      "type": "function"
    },
    {
      "inputs": [
        {
          "internalType": "uint256",
          "name": "usdc_amount",
          "type": "uint256"
        }
      ],
      "name": "est_swap_usdc_to_stsla",
      "outputs": [
        {
          "internalType": "uint256",
          "name": "",
          "type": "uint256"
        }
      ],
      "stateMutability": "view",
      "type": "function"
    },
    {
      "inputs": [
        {
          "internalType": "uint256",
          "name": "usdc_amount",
          "type": "uint256"
        }
      ],
      "name": "est_swap_usdc_to_susd",
      "outputs": [
        {
          "internalType": "uint256",
          "name": "",
          "type": "uint256"
        }
      ],
      "stateMutability": "view",
      "type": "function"
    },
    {
      "inputs": [
        {
          "internalType": "uint256",
          "name": "usdc_amount",
          "type": "uint256"
        }
      ],
      "name": "swap_usdc_to_stsla",
      "outputs": [
        {
          "internalType": "uint256",
          "name": "",
          "type": "uint256"
        }
      ],
      "stateMutability": "payable",
      "type": "function"
    },
    {
      "stateMutability": "payable",
      "type": "receive"
    }
  ],
  "bytecode": "0x6080604052737a250d5630b4cf539739df2c5dacb4c659f2488d6000806101000a81548173ffffffffffffffffffffffffffffffffffffffff021916908373ffffffffffffffffffffffffffffffffffffffff16021790555073a5407eae9ba41422680e2e00537571bcc53efbfd600160006101000a81548173ffffffffffffffffffffffffffffffffffffffff021916908373ffffffffffffffffffffffffffffffffffffffff1602179055507397767d7d04fd0db0a1a2478dcd4ba85290556b48600260006101000a81548173ffffffffffffffffffffffffffffffffffffffff021916908373ffffffffffffffffffffffffffffffffffffffff160217905550730bfdc04b38251394542586969e2356d0d731f7de600360006101000a81548173ffffffffffffffffffffffffffffffffffffffff021916908373ffffffffffffffffffffffffffffffffffffffff1602179055507f735553440000000000000000000000000000000000000000000000000000000060001b6004557f7354534c4100000000000000000000000000000000000000000000000000000060001b6005553480156101b157600080fd5b506116f0806101c16000396000f3fe6080604052600436106100435760003560e01c8063208c956214610096578063769b214b146100d8578063ac03b12614610127578063c17a37181461017657610091565b36610091576100866040518060400160405280601181526020017f726563656976696e672065746865723a20000000000000000000000000000000815250610180565b61008f3461027e565b005b600080fd5b6100c2600480360360208110156100ac57600080fd5b8101908080359060200190929190505050610317565b6040518082815260200191505060405180910390f35b3480156100e457600080fd5b50610111600480360360208110156100fb57600080fd5b8101908080359060200190929190505050610e44565b6040518082815260200191505060405180910390f35b34801561013357600080fd5b506101606004803603602081101561014a57600080fd5b8101908080359060200190929190505050610f9e565b6040518082815260200191505060405180910390f35b61017e6110d7565b005b61027b816040516024018080602001828103825283818151815260200191508051906020019080838360005b838110156101c75780820151818401526020810190506101ac565b50505050905090810190601f1680156101f45780820380516001836020036101000a031916815260200191505b50925050506040516020818303038152906040527f41304fac000000000000000000000000000000000000000000000000000000007bffffffffffffffffffffffffffffffffffffffffffffffffffffffff19166020820180517bffffffffffffffffffffffffffffffffffffffffffffffffffffffff8381831617835250505050611361565b50565b61031481604051602401808281526020019150506040516020818303038152906040527ff5b1bba9000000000000000000000000000000000000000000000000000000007bffffffffffffffffffffffffffffffffffffffffffffffffffffffff19166020820180517bffffffffffffffffffffffffffffffffffffffffffffffffffffffff8381831617835250505050611361565b50565b60006103576040518060400160405280601a81526020017f737761705f757364635f746f5f73746c61207374617274696e67000000000000815250610180565b6103956040518060400160405280601881526020017f7472616e73666572696e67207573646320616d6f756e743a0000000000000000815250610180565b61039e8261027e565b6103dc6040518060400160405280600581526020017f66726f6d3a000000000000000000000000000000000000000000000000000000815250610180565b6103e53361138a565b6104236040518060400160405280600381526020017f746f3a0000000000000000000000000000000000000000000000000000000000815250610180565b61042c3061138a565b73a0b86991c6218b36c1d19d4a2e9eb0ce3606eb4873ffffffffffffffffffffffffffffffffffffffff166323b872dd3330856040518463ffffffff1660e01b8152600401808473ffffffffffffffffffffffffffffffffffffffff1681526020018373ffffffffffffffffffffffffffffffffffffffff1681526020018281526020019350505050602060405180830381600087803b1580156104cf57600080fd5b505af11580156104e3573d6000803e3d6000fd5b505050506040513d60208110156104f957600080fd5b81019080805190602001909291905050506105ba5761054c6040518060400160405280601781526020017f6661696c656420746f207472616e736665722075736463000000000000000000815250610180565b6040517f08c379a00000000000000000000000000000000000000000000000000000000081526004018080602001828103825260148152602001807f55534443207472616e73666572206661696c656400000000000000000000000081525060200191505060405180910390fd5b6105f86040518060400160405280601081526020017f75736463207472616e73666572206f6b00000000000000000000000000000000815250610180565b6106196040518060600160405280603581526020016115fb60359139610180565b73a0b86991c6218b36c1d19d4a2e9eb0ce3606eb4873ffffffffffffffffffffffffffffffffffffffff1663095ea7b373a5407eae9ba41422680e2e00537571bcc53efbfd846040518363ffffffff1660e01b8152600401808373ffffffffffffffffffffffffffffffffffffffff16815260200182815260200192505050602060405180830381600087803b1580156106b257600080fd5b505af11580156106c6573d6000803e3d6000fd5b505050506040513d60208110156106dc57600080fd5b810190808051906020019092919050505061079d5761072f6040518060400160405280601f81526020017f6661696c656420746f20617070726f76652055534443207472616e7366657200815250610180565b6040517f08c379a000000000000000000000000000000000000000000000000000000000815260040180806020018281038252601d8152602001807f55534443207472616e7366657220617070726f76616c206661696c656400000081525060200191505060405180910390fd5b6107db6040518060400160405280601981526020017f55534443207472616e7366657220617070726f76616c204f4b00000000000000815250610180565b6108196040518060400160405280601381526020017f7374617274696e6720555344432d3e5355534400000000000000000000000000815250610180565b61083a60405180606001604052806037815260200161165660379139610180565b600061084583610e44565b90506108856040518060400160405280601381526020017f7377617070696e6720555344432d3e5355534400000000000000000000000000815250610180565b6108c36040518060400160405280600d81526020017f6d696e2065787065637465643a00000000000000000000000000000000000000815250610180565b6000606482816108cf57fe5b04820390506108dd8161027e565b61091b6040518060400160405280601c81526020017f63616c6c696e672063727653555344537761702e65786368616e676500000000815250610180565b60007357ab1ec28d129707052df4df418d58a2d46d5f5173ffffffffffffffffffffffffffffffffffffffff166370a08231306040518263ffffffff1660e01b8152600401808273ffffffffffffffffffffffffffffffffffffffff16815260200191505060206040518083038186803b15801561099857600080fd5b505afa1580156109ac573d6000803e3d6000fd5b505050506040513d60208110156109c257600080fd5b81019080805190602001909291905050509050600160009054906101000a900473ffffffffffffffffffffffffffffffffffffffff1673ffffffffffffffffffffffffffffffffffffffff16633df021246001600388866040518563ffffffff1660e01b81526004018085600f0b815260200184600f0b8152602001838152602001828152602001945050505050600060405180830381600087803b158015610a6a57600080fd5b505af1158015610a7e573d6000803e3d6000fd5b5050505060007357ab1ec28d129707052df4df418d58a2d46d5f5173ffffffffffffffffffffffffffffffffffffffff166370a08231306040518263ffffffff1660e01b8152600401808273ffffffffffffffffffffffffffffffffffffffff16815260200191505060206040518083038186803b158015610aff57600080fd5b505afa158015610b13573d6000803e3d6000fd5b505050506040513d6020811015610b2957600080fd5b8101908080519060200190929190505050905060008282039050610b646040518060600160405280602e815260200161168d602e9139610180565b610b6d8161027e565b610b8e6040518060600160405280603b81526020016115c0603b9139610180565b7357ab1ec28d129707052df4df418d58a2d46d5f5173ffffffffffffffffffffffffffffffffffffffff1663095ea7b37397767d7d04fd0db0a1a2478dcd4ba85290556b48836040518363ffffffff1660e01b8152600401808373ffffffffffffffffffffffffffffffffffffffff16815260200182815260200192505050602060405180830381600087803b158015610c2757600080fd5b505af1158015610c3b573d6000803e3d6000fd5b505050506040513d6020811015610c5157600080fd5b8101908080519060200190929190505050610d1257610ca46040518060400160405280601f81526020017f6661696c656420746f20617070726f76652073555344207472616e7366657200815250610180565b6040517f08c379a000000000000000000000000000000000000000000000000000000000815260040180806020018281038252601d8152602001807f73555344207472616e7366657220617070726f76616c206661696c656400000081525060200191505060405180910390fd5b610d506040518060400160405280601981526020017f73555344207472616e7366657220617070726f76616c204f4b00000000000000815250610180565b6000600260009054906101000a900473ffffffffffffffffffffffffffffffffffffffff1673ffffffffffffffffffffffffffffffffffffffff1663c836fa0a33600454856005546040518563ffffffff1660e01b8152600401808573ffffffffffffffffffffffffffffffffffffffff168152602001848152602001838152602001828152602001945050505050602060405180830381600087803b158015610df957600080fd5b505af1158015610e0d573d6000803e3d6000fd5b505050506040513d6020811015610e2357600080fd5b81019080805190602001909291905050509050809650505050505050919050565b6000610e846040518060400160405280601681526020017f657374696d6174696e67207355534420616d6f756e7400000000000000000000815250610180565b6000600160009054906101000a900473ffffffffffffffffffffffffffffffffffffffff1673ffffffffffffffffffffffffffffffffffffffff16635e0d443f60016003866040518463ffffffff1660e01b81526004018084600f0b815260200183600f0b8152602001828152602001935050505060206040518083038186803b158015610f1157600080fd5b505afa158015610f25573d6000803e3d6000fd5b505050506040513d6020811015610f3b57600080fd5b81019080805190602001909291905050509050610f8c6040518060400160405280601581526020017f7355534420616d6f756e742065787065637465643a0000000000000000000000815250610180565b610f958161027e565b80915050919050565b600080610faa83610e44565b9050610fea6040518060400160405280601781526020017f657374696d6174696e67207354534c4120616d6f756e74000000000000000000815250610180565b6000806000600360009054906101000a900473ffffffffffffffffffffffffffffffffffffffff1673ffffffffffffffffffffffffffffffffffffffff1663f450aa34856004546005546040518463ffffffff1660e01b815260040180848152602001838152602001828152602001935050505060606040518083038186803b15801561107657600080fd5b505afa15801561108a573d6000803e3d6000fd5b505050506040513d60608110156110a057600080fd5b8101908080519060200190929190805190602001909291908051906020019092919050505092509250925082945050505050919050565b6111156040518060400160405280601a81526020017f627579696e67207573646320666f72206465762077616c6c6574000000000000815250610180565b6000670de0b6b3a76400009050600061012c42019050606060008054906101000a900473ffffffffffffffffffffffffffffffffffffffff1673ffffffffffffffffffffffffffffffffffffffff16637ff36ab584600061118973a0b86991c6218b36c1d19d4a2e9eb0ce3606eb48611439565b73f69b8785468d0943edbc4b090c6b356c3d0f20d0876040518663ffffffff1660e01b815260040180858152602001806020018473ffffffffffffffffffffffffffffffffffffffff168152602001838152602001828103825285818151815260200191508051906020019060200280838360005b838110156112195780820151818401526020810190506111fe565b50505050905001955050505050506000604051808303818588803b15801561124057600080fd5b505af1158015611254573d6000803e3d6000fd5b50505050506040513d6000823e3d601f19601f82011682018060405250602081101561127f57600080fd5b810190808051604051939291908464010000000082111561129f57600080fd5b838201915060208201858111156112b557600080fd5b82518660208202830111640100000000821117156112d257600080fd5b8083526020830192505050908051906020019060200280838360005b838110156113095780820151818401526020810190506112ee565b50505050905001604052505050905060008160018151811061132757fe5b6020026020010151905061135260405180606001604052806026815260200161163060269139610180565b61135b8161027e565b50505050565b60008151905060006a636f6e736f6c652e6c6f679050602083016000808483855afa5050505050565b61143681604051602401808273ffffffffffffffffffffffffffffffffffffffff1681526020019150506040516020818303038152906040527f2c2ecbc2000000000000000000000000000000000000000000000000000000007bffffffffffffffffffffffffffffffffffffffffffffffffffffffff19166020820180517bffffffffffffffffffffffffffffffffffffffffffffffffffffffff8381831617835250505050611361565b50565b606080600267ffffffffffffffff8111801561145457600080fd5b506040519080825280602002602001820160405280156114835781602001602082028036833780820191505090505b50905060008054906101000a900473ffffffffffffffffffffffffffffffffffffffff1673ffffffffffffffffffffffffffffffffffffffff1663ad5c46486040518163ffffffff1660e01b815260040160206040518083038186803b1580156114ec57600080fd5b505afa158015611500573d6000803e3d6000fd5b505050506040513d602081101561151657600080fd5b81019080805190602001909291905050508160008151811061153457fe5b602002602001019073ffffffffffffffffffffffffffffffffffffffff16908173ffffffffffffffffffffffffffffffffffffffff1681525050828160018151811061157c57fe5b602002602001019073ffffffffffffffffffffffffffffffffffffffff16908173ffffffffffffffffffffffffffffffffffffffff16815250508091505091905056fe617070726f76696e67207472616e73666572206f6620735553442066726f6d2073656c6620746f2053796e7468657469782065786368616e676572617070726f76696e67207472616e73666572206f6620555344432066726f6d2073656c6620746f20735553445377617020706f6f6c55534443206465706f736974656420746f204d6574616d61736b206465762077616c6c65743a212121207468697320657374696d617465206e6565647320746f20636f6d652066726f6d2074686520757365722c206e6f74206865726563727653555344537761702e65786368616e676520636f6d706c657465642c20726563656976656420735553443aa2646970667358221220ca67883372c13d77235f6448f61456d2f9ede2f490940faa2fc42d716c3391da64736f6c63430007030033",
  "linkReferences": {},
  "deployedLinkReferences": {}
}