{
  "_format": "hh-sol-artifact-1",
  "contractName": "BUYsTSLA",
  "sourceName": "contracts/BUYsTSLA.sol",
  "abi": [
    {
      "inputs": [],
      "stateMutability": "nonpayable",
      "type": "constructor"
    },
    {
      "inputs": [
        {
          "internalType": "uint256",
          "name": "usdc_amount",
          "type": "uint256"
        }
      ],
      "name": "est_swap_usdc_to_stsla",
      "outputs": [
        {
          "internalType": "uint256",
          "name": "",
          "type": "uint256"
        }
      ],
      "stateMutability": "view",
      "type": "function"
    },
    {
      "inputs": [
        {
          "internalType": "uint256",
          "name": "usdc_amount",
          "type": "uint256"
        }
      ],
      "name": "est_swap_usdc_to_susd",
      "outputs": [
        {
          "internalType": "uint256",
          "name": "",
          "type": "uint256"
        }
      ],
      "stateMutability": "view",
      "type": "function"
    },
    {
      "inputs": [
        {
          "internalType": "uint256",
          "name": "usdc_amount",
          "type": "uint256"
        }
      ],
      "name": "swap_usdc_to_stsla",
      "outputs": [
        {
          "internalType": "uint256",
          "name": "",
          "type": "uint256"
        }
      ],
      "stateMutability": "payable",
      "type": "function"
    }
  ],
  "bytecode": "0x608060405273a5407eae9ba41422680e2e00537571bcc53efbfd6000806101000a81548173ffffffffffffffffffffffffffffffffffffffff021916908373ffffffffffffffffffffffffffffffffffffffff1602179055507397767d7d04fd0db0a1a2478dcd4ba85290556b48600160006101000a81548173ffffffffffffffffffffffffffffffffffffffff021916908373ffffffffffffffffffffffffffffffffffffffff160217905550730bfdc04b38251394542586969e2356d0d731f7de600260006101000a81548173ffffffffffffffffffffffffffffffffffffffff021916908373ffffffffffffffffffffffffffffffffffffffff1602179055507f735553440000000000000000000000000000000000000000000000000000000060001b6003557f7354534c4100000000000000000000000000000000000000000000000000000060001b60045534801561015c57600080fd5b50610a2b8061016c6000396000f3fe6080604052600436106100345760003560e01c8063208c956214610039578063769b214b1461007b578063ac03b126146100ca575b600080fd5b6100656004803603602081101561004f57600080fd5b8101908080359060200190929190505050610119565b6040518082815260200191505060405180910390f35b34801561008757600080fd5b506100b46004803603602081101561009e57600080fd5b810190808035906020019092919050505061082f565b6040518082815260200191505060405180910390f35b3480156100d657600080fd5b50610103600480360360208110156100ed57600080fd5b8101908080359060200190929190505050610901565b6040518082815260200191505060405180910390f35b600073a0b86991c6218b36c1d19d4a2e9eb0ce3606eb4873ffffffffffffffffffffffffffffffffffffffff166323b872dd3330856040518463ffffffff1660e01b8152600401808473ffffffffffffffffffffffffffffffffffffffff1681526020018373ffffffffffffffffffffffffffffffffffffffff1681526020018281526020019350505050602060405180830381600087803b1580156101be57600080fd5b505af11580156101d2573d6000803e3d6000fd5b505050506040513d60208110156101e857600080fd5b810190808051906020019092919050505061026b576040517f08c379a00000000000000000000000000000000000000000000000000000000081526004018080602001828103825260148152602001807f55534443207472616e73666572206661696c656400000000000000000000000081525060200191505060405180910390fd5b73a0b86991c6218b36c1d19d4a2e9eb0ce3606eb4873ffffffffffffffffffffffffffffffffffffffff1663095ea7b373a5407eae9ba41422680e2e00537571bcc53efbfd846040518363ffffffff1660e01b8152600401808373ffffffffffffffffffffffffffffffffffffffff16815260200182815260200192505050602060405180830381600087803b15801561030457600080fd5b505af1158015610318573d6000803e3d6000fd5b505050506040513d602081101561032e57600080fd5b81019080805190602001909291905050506103b1576040517f08c379a000000000000000000000000000000000000000000000000000000000815260040180806020018281038252601d8152602001807f55534443207472616e7366657220617070726f76616c206661696c656400000081525060200191505060405180910390fd5b60006103bc8361082f565b90506000606482816103ca57fe5b048203905060007357ab1ec28d129707052df4df418d58a2d46d5f5173ffffffffffffffffffffffffffffffffffffffff166370a08231306040518263ffffffff1660e01b8152600401808273ffffffffffffffffffffffffffffffffffffffff16815260200191505060206040518083038186803b15801561044c57600080fd5b505afa158015610460573d6000803e3d6000fd5b505050506040513d602081101561047657600080fd5b8101908080519060200190929190505050905060008054906101000a900473ffffffffffffffffffffffffffffffffffffffff1673ffffffffffffffffffffffffffffffffffffffff16633df021246001600388866040518563ffffffff1660e01b81526004018085600f0b815260200184600f0b8152602001838152602001828152602001945050505050600060405180830381600087803b15801561051c57600080fd5b505af1158015610530573d6000803e3d6000fd5b5050505060007357ab1ec28d129707052df4df418d58a2d46d5f5173ffffffffffffffffffffffffffffffffffffffff166370a08231306040518263ffffffff1660e01b8152600401808273ffffffffffffffffffffffffffffffffffffffff16815260200191505060206040518083038186803b1580156105b157600080fd5b505afa1580156105c5573d6000803e3d6000fd5b505050506040513d60208110156105db57600080fd5b81019080805190602001909291905050509050600082820390507357ab1ec28d129707052df4df418d58a2d46d5f5173ffffffffffffffffffffffffffffffffffffffff1663095ea7b37397767d7d04fd0db0a1a2478dcd4ba85290556b48836040518363ffffffff1660e01b8152600401808373ffffffffffffffffffffffffffffffffffffffff16815260200182815260200192505050602060405180830381600087803b15801561068e57600080fd5b505af11580156106a2573d6000803e3d6000fd5b505050506040513d60208110156106b857600080fd5b810190808051906020019092919050505061073b576040517f08c379a000000000000000000000000000000000000000000000000000000000815260040180806020018281038252601d8152602001807f73555344207472616e7366657220617070726f76616c206661696c656400000081525060200191505060405180910390fd5b6000600160009054906101000a900473ffffffffffffffffffffffffffffffffffffffff1673ffffffffffffffffffffffffffffffffffffffff1663c836fa0a33600354856004546040518563ffffffff1660e01b8152600401808573ffffffffffffffffffffffffffffffffffffffff168152602001848152602001838152602001828152602001945050505050602060405180830381600087803b1580156107e457600080fd5b505af11580156107f8573d6000803e3d6000fd5b505050506040513d602081101561080e57600080fd5b81019080805190602001909291905050509050809650505050505050919050565b60008060008054906101000a900473ffffffffffffffffffffffffffffffffffffffff1673ffffffffffffffffffffffffffffffffffffffff16635e0d443f60016003866040518463ffffffff1660e01b81526004018084600f0b815260200183600f0b8152602001828152602001935050505060206040518083038186803b1580156108bb57600080fd5b505afa1580156108cf573d6000803e3d6000fd5b505050506040513d60208110156108e557600080fd5b8101908080519060200190929190505050905080915050919050565b60008061090d8361082f565b90506000600260009054906101000a900473ffffffffffffffffffffffffffffffffffffffff1673ffffffffffffffffffffffffffffffffffffffff1663f450aa34836003546004546040518463ffffffff1660e01b815260040180848152602001838152602001828152602001935050505060606040518083038186803b15801561099857600080fd5b505afa1580156109ac573d6000803e3d6000fd5b505050506040513d60608110156109c257600080fd5b8101908080519060200190929190805190602001909291908051906020019092919050505050509050809250505091905056fea26469706673582212208a80cad5feed28f746ef7527779c286e978d4cc1a5c6bfccb5aa4c28e3252f8d64736f6c63430007030033",
  "linkReferences": {},
  "deployedLinkReferences": {}
}