{
  "_format": "hh-sol-artifact-1",
  "contractName": "Greeter",
  "sourceName": "contracts/Greeter.sol",
  "abi": [
    {
      "inputs": [
        {
          "internalType": "string",
          "name": "_greeting",
          "type": "string"
        }
      ],
      "stateMutability": "nonpayable",
      "type": "constructor"
    },
    {
      "inputs": [
        {
          "internalType": "uint256",
          "name": "etherCost",
          "type": "uint256"
        },
        {
          "internalType": "address",
          "name": "cryptoToken",
          "type": "address"
        }
      ],
      "name": "buyCryptoOnUniswap",
      "outputs": [
        {
          "internalType": "uint256",
          "name": "",
          "type": "uint256"
        }
      ],
      "stateMutability": "payable",
      "type": "function"
    },
    {
      "inputs": [],
      "name": "greet",
      "outputs": [],
      "stateMutability": "payable",
      "type": "function"
    },
    {
      "inputs": [
        {
          "internalType": "string",
          "name": "_greeting",
          "type": "string"
        }
      ],
      "name": "setGreeting",
      "outputs": [],
      "stateMutability": "nonpayable",
      "type": "function"
    },
    {
      "inputs": [
        {
          "internalType": "uint256",
          "name": "amount",
          "type": "uint256"
        }
      ],
      "name": "swap_usdc_to_susd",
      "outputs": [],
      "stateMutability": "payable",
      "type": "function"
    },
    {
      "stateMutability": "payable",
      "type": "receive"
    }
  ],
  "bytecode": "0x6080604052737a250d5630b4cf539739df2c5dacb4c659f2488d6000806101000a81548173ffffffffffffffffffffffffffffffffffffffff021916908373ffffffffffffffffffffffffffffffffffffffff1602179055503480156200006557600080fd5b506040516200169038038062001690833981810160405260208110156200008b57600080fd5b8101908080516040519392919084640100000000821115620000ac57600080fd5b83820191506020820185811115620000c357600080fd5b8251866001820283011164010000000082111715620000e157600080fd5b8083526020830192505050908051906020019080838360005b8381101562000117578082015181840152602081019050620000fa565b50505050905090810190601f168015620001455780820380516001836020036101000a031916815260200191505b506040525050506200017c6040518060600160405280602281526020016200166e60229139826200019c60201b62000bdf1760201c565b8060019080519060200190620001949291906200033f565b5050620003e5565b620003128282604051602401808060200180602001838103835285818151815260200191508051906020019080838360005b83811015620001eb578082015181840152602081019050620001ce565b50505050905090810190601f168015620002195780820380516001836020036101000a031916815260200191505b50838103825284818151815260200191508051906020019080838360005b838110156200025457808201518184015260208101905062000237565b50505050905090810190601f168015620002825780820380516001836020036101000a031916815260200191505b509450505050506040516020818303038152906040527f4b5c4277000000000000000000000000000000000000000000000000000000007bffffffffffffffffffffffffffffffffffffffffffffffffffffffff19166020820180517bffffffffffffffffffffffffffffffffffffffffffffffffffffffff83818316178352505050506200031660201b60201c565b5050565b60008151905060006a636f6e736f6c652e6c6f679050602083016000808483855afa5050505050565b828054600181600116156101000203166002900490600052602060002090601f016020900481019282601f106200038257805160ff1916838001178555620003b3565b82800160010185558215620003b3579182015b82811115620003b257825182559160200191906001019062000395565b5b509050620003c29190620003c6565b5090565b5b80821115620003e1576000816000905550600101620003c7565b5090565b61127980620003f56000396000f3fe6080604052600436106100435760003560e01c80630c5cd4d014610096578063a4136862146100f8578063cfae3217146101c0578063f76d6e94146101ca57610091565b36610091576100866040518060400160405280601181526020017f726563656976696e672065746865723a200000000000000000000000000000008152506101f8565b61008f346102f6565b005b600080fd5b6100e2600480360360408110156100ac57600080fd5b8101908080359060200190929190803573ffffffffffffffffffffffffffffffffffffffff16906020019092919050505061038f565b6040518082815260200191505060405180910390f35b34801561010457600080fd5b506101be6004803603602081101561011b57600080fd5b810190808035906020019064010000000081111561013857600080fd5b82018360208201111561014a57600080fd5b8035906020019184600183028401116401000000008311171561016c57600080fd5b91908080601f016020809104026020016040519081016040528093929190818152602001838380828437600081840152601f19601f82011690508083019250505050505050919291929050505061067e565b005b6101c8610755565b005b6101f6600480360360208110156101e057600080fd5b810190808035906020019092919050505061077e565b005b6102f3816040516024018080602001828103825283818151815260200191508051906020019080838360005b8381101561023f578082015181840152602081019050610224565b50505050905090810190601f16801561026c5780820380516001836020036101000a031916815260200191505b50925050506040516020818303038152906040527f41304fac000000000000000000000000000000000000000000000000000000007bffffffffffffffffffffffffffffffffffffffffffffffffffffffff19166020820180517bffffffffffffffffffffffffffffffffffffffffffffffffffffffff8381831617835250505050610d4b565b50565b61038c81604051602401808281526020019150506040516020818303038152906040527ff5b1bba9000000000000000000000000000000000000000000000000000000007bffffffffffffffffffffffffffffffffffffffffffffffffffffffff19166020820180517bffffffffffffffffffffffffffffffffffffffffffffffffffffffff8381831617835250505050610d4b565b50565b6000808314156103e0576103d76040518060400160405280601681526020017f63616e277420627579207769746820302066756e6473000000000000000000008152506101f8565b60009050610678565b4783111561042f576104266040518060400160405280601281526020017f696e73756666696369656e742066756e647300000000000000000000000000008152506101f8565b60009050610678565b600061012c42019050606060008054906101000a900473ffffffffffffffffffffffffffffffffffffffff1673ffffffffffffffffffffffffffffffffffffffff16637ff36ab586600061048288610d74565b73f69b8785468d0943edbc4b090c6b356c3d0f20d0876040518663ffffffff1660e01b815260040180858152602001806020018473ffffffffffffffffffffffffffffffffffffffff168152602001838152602001828103825285818151815260200191508051906020019060200280838360005b838110156105125780820151818401526020810190506104f7565b50505050905001955050505050506000604051808303818588803b15801561053957600080fd5b505af115801561054d573d6000803e3d6000fd5b50505050506040513d6000823e3d601f19601f82011682018060405250602081101561057857600080fd5b810190808051604051939291908464010000000082111561059857600080fd5b838201915060208201858111156105ae57600080fd5b82518660208202830111640100000000821117156105cb57600080fd5b8083526020830192505050908051906020019060200280838360005b838110156106025780820151818401526020810190506105e7565b50505050905001604052505050905060008160018151811061062057fe5b602002602001015190506106686040518060400160405280601781526020017f756e69206f757470757420746f6b656e20636f756e743a0000000000000000008152506101f8565b610671816102f6565b8093505050505b92915050565b61073b6040518060600160405280602381526020016112216023913960018054600181600116156101000203166002900480601f0160208091040260200160405190810160405280929190818152602001828054600181600116156101000203166002900480156107305780601f1061070557610100808354040283529160200191610730565b820191906000526020600020905b81548152906001019060200180831161071357829003601f168201915b505050505083610efa565b8060019080519060200190610751929190611183565b5050565b61077b670de0b6b3a764000073a0b86991c6218b36c1d19d4a2e9eb0ce3606eb4861038f565b50565b73a0b86991c6218b36c1d19d4a2e9eb0ce3606eb4873ffffffffffffffffffffffffffffffffffffffff166323b872dd3330846040518463ffffffff1660e01b8152600401808473ffffffffffffffffffffffffffffffffffffffff1681526020018373ffffffffffffffffffffffffffffffffffffffff1681526020018281526020019350505050602060405180830381600087803b15801561082157600080fd5b505af1158015610835573d6000803e3d6000fd5b505050506040513d602081101561084b57600080fd5b81019080805190602001909291905050506108a35761089e6040518060400160405280601781526020017f6661696c656420746f20726574726569766520757364630000000000000000008152506101f8565b610bdc565b6108e16040518060400160405280601181526020017f67657474696e67206265737420726174650000000000000000000000000000008152506101f8565b60008073d1602f68cc7c4c7b59d686243ea35a9c73b0c6a273ffffffffffffffffffffffffffffffffffffffff16634e21df7573a0b86991c6218b36c1d19d4a2e9eb0ce3606eb487357ab1ec28d129707052df4df418d58a2d46d5f51866040518463ffffffff1660e01b8152600401808473ffffffffffffffffffffffffffffffffffffffff1681526020018373ffffffffffffffffffffffffffffffffffffffff1681526020018281526020019350505050604080518083038186803b1580156109ac57600080fd5b505afa1580156109c0573d6000803e3d6000fd5b505050506040513d60408110156109d657600080fd5b81019080805190602001909291908051906020019092919050505091509150610a336040518060400160405280600581526020017f706f6f6c3a0000000000000000000000000000000000000000000000000000008152506101f8565b610a3c826110d4565b610a7a6040518060400160405280601081526020017f65786368616e676520726573756c743a000000000000000000000000000000008152506101f8565b610bd973d1602f68cc7c4c7b59d686243ea35a9c73b0c6a273ffffffffffffffffffffffffffffffffffffffff16631a4c1ca38473a0b86991c6218b36c1d19d4a2e9eb0ce3606eb487357ab1ec28d129707052df4df418d58a2d46d5f518860636064890281610ae657fe5b04336040518763ffffffff1660e01b8152600401808773ffffffffffffffffffffffffffffffffffffffff1681526020018673ffffffffffffffffffffffffffffffffffffffff1681526020018573ffffffffffffffffffffffffffffffffffffffff1681526020018481526020018381526020018273ffffffffffffffffffffffffffffffffffffffff1681526020019650505050505050602060405180830381600087803b158015610b9957600080fd5b505af1158015610bad573d6000803e3d6000fd5b505050506040513d6020811015610bc357600080fd5b81019080805190602001909291905050506102f6565b50505b50565b610d478282604051602401808060200180602001838103835285818151815260200191508051906020019080838360005b83811015610c2b578082015181840152602081019050610c10565b50505050905090810190601f168015610c585780820380516001836020036101000a031916815260200191505b50838103825284818151815260200191508051906020019080838360005b83811015610c91578082015181840152602081019050610c76565b50505050905090810190601f168015610cbe5780820380516001836020036101000a031916815260200191505b509450505050506040516020818303038152906040527f4b5c4277000000000000000000000000000000000000000000000000000000007bffffffffffffffffffffffffffffffffffffffffffffffffffffffff19166020820180517bffffffffffffffffffffffffffffffffffffffffffffffffffffffff8381831617835250505050610d4b565b5050565b60008151905060006a636f6e736f6c652e6c6f679050602083016000808483855afa5050505050565b606080600267ffffffffffffffff81118015610d8f57600080fd5b50604051908082528060200260200182016040528015610dbe5781602001602082028036833780820191505090505b50905060008054906101000a900473ffffffffffffffffffffffffffffffffffffffff1673ffffffffffffffffffffffffffffffffffffffff1663ad5c46486040518163ffffffff1660e01b815260040160206040518083038186803b158015610e2757600080fd5b505afa158015610e3b573d6000803e3d6000fd5b505050506040513d6020811015610e5157600080fd5b810190808051906020019092919050505081600081518110610e6f57fe5b602002602001019073ffffffffffffffffffffffffffffffffffffffff16908173ffffffffffffffffffffffffffffffffffffffff16815250508281600181518110610eb757fe5b602002602001019073ffffffffffffffffffffffffffffffffffffffff16908173ffffffffffffffffffffffffffffffffffffffff168152505080915050919050565b6110cf83838360405160240180806020018060200180602001848103845287818151815260200191508051906020019080838360005b83811015610f4b578082015181840152602081019050610f30565b50505050905090810190601f168015610f785780820380516001836020036101000a031916815260200191505b50848103835286818151815260200191508051906020019080838360005b83811015610fb1578082015181840152602081019050610f96565b50505050905090810190601f168015610fde5780820380516001836020036101000a031916815260200191505b50848103825285818151815260200191508051906020019080838360005b83811015611017578082015181840152602081019050610ffc565b50505050905090810190601f1680156110445780820380516001836020036101000a031916815260200191505b5096505050505050506040516020818303038152906040527f2ced7cef000000000000000000000000000000000000000000000000000000007bffffffffffffffffffffffffffffffffffffffffffffffffffffffff19166020820180517bffffffffffffffffffffffffffffffffffffffffffffffffffffffff8381831617835250505050610d4b565b505050565b61118081604051602401808273ffffffffffffffffffffffffffffffffffffffff1681526020019150506040516020818303038152906040527f2c2ecbc2000000000000000000000000000000000000000000000000000000007bffffffffffffffffffffffffffffffffffffffffffffffffffffffff19166020820180517bffffffffffffffffffffffffffffffffffffffffffffffffffffffff8381831617835250505050610d4b565b50565b828054600181600116156101000203166002900490600052602060002090601f016020900481019282601f106111c457805160ff19168380011785556111f2565b828001600101855582156111f2579182015b828111156111f15782518255916020019190600101906111d6565b5b5090506111ff9190611203565b5090565b5b8082111561121c576000816000905550600101611204565b509056fe4368616e67696e67206772656574696e672066726f6d202725732720746f2027257327a26469706673582212202bee2f71eb7e0dc9b77c7ed3f4dbb42c9bae27b656a6d769e26b435f460b860b64736f6c634300070300334465706c6f79696e67206120477265657465722077697468206772656574696e673a",
  "linkReferences": {},
  "deployedLinkReferences": {}
}